:020000040800F2
:1000000000040020390200083B0200083A02000800
:100010003A0200083A0200083A0200083A020008D0
:100020003A0200083A0200083A020008E1380008E3
:100030003A0200083A0200083A0200083A020008B0
:100040003A0200083A0200083A0200083A020008A0
:100050003A0200083A0200083A0200083A02000890
:100060003A0200083A0200083A0200083A02000880
:100070003A0200083A0200083A0200083A02000870
:100080003A0200083A0200083A0200083A02000860
:10009000718D00083A0200083A0200083A0200088E
:1000A0003A0200083A0200083A0200083A02000840
:1000B000919000083A0200083A0200083A0200084B
:1000C0003A0200083A0200083A0200083A02000820
:1000D0003A0200083A0200083A0200083A02000810
:1000E0003A0200083A0200083A0200083A02000800
:1000F0003A0200083A0200083A0200083A020008F0
:100100003A0200083A0200083A0200083A020008DF
:100110003A0200083A0200083A0200083A020008CF
:100120003A0200083A0200083A0200083A020008BF
:100130003A0200083A0200083A0200083A020008AF
:100140003A0200083A0200083A0200083A0200089F
:100150003A0200083A0200083A0200083A0200088F
:1001600072B6274880F30888264880F30988264815
:100170004EF60851CEF200010860022080F3148888
:10018000BFF36F8F09F024FB09F02AFB4FF05530C5
:100190001E491B4A91423CBF41F8040BFAE71C4937
:1001A000184A91423CBF41F8040BFAE719491A4A30
:1001B0001A4B9A423EBF51F8040B42F8040BF8E781
:1001C00000201749174A91423CBF41F8040BFAE757
:1001D00009F0B6FA09F0F4FA134C144DAC4203DA04
:1001E00054F8041B8847F9E706F00AFB104C114D40
:1001F000AC4203DA54F8041B8847F9E709F0D8BA8F
:10020000000400200008002000000008000000207A
:1002100000040020A0C3000800080020E80C002013
:10022000E80C0020481D0020600100086001000863
:10023000600100086001000892E700F000F8FEE7A6
:100240002DE9F04FC1F80CD0C3689D46BDE8F08F92
:10025000002383F311882846A047002003F068FBA1
:1002600003F076FB00DFFEE7844641EA000313F06B
:10027000030349D1403A23D30B6803604B684360C2
:100280008B688360CB68C3600B6903614B69436112
:100290008B698361CB69C3610B6A03624B6A4362FA
:1002A0008B6A8362CB6AC3620B6B03634B6B4363E2
:1002B0008B6B8363CB6BC36340304031403ADBD2FE
:1002C00030320BD30B6803604B6843608B688360EC
:1002D000CB68C36010301031103AF3D20C3205D322
:1002E00051F8043B40F8043B043AF9D2043208D0F8
:1002F000D2071CBF11F8013B00F8013B01D30B886A
:1003000003806046704700BF082A13D38B07B1D023
:1003100010F00303AED0C3F10403D21ADB071CBFF5
:1003200011F8013B00F8013BA4D331F8023B20F85F
:10033000023B9FE7043AD9D3013A11F8013B00F898
:10034000013BF9D20B7803704B7843708B78837044
:100350006046704780EA010C1CF0030F37D110F0A3
:10036000030C20F0030021F0030150F8042B08BF18
:1003700051F8043B0ED08CF0030C6FF07F434FEA32
:10038000CC0C23FA0CFC51F8043B42EA0C0243EA81
:100390000C0300BFA2F1013C9A4201BF2CEA020CFF
:1003A0001CF0803F50F8042B51F8043BF2D04FEA88
:1003B00002604FEA1222012828BFB0EB036F08BF8A
:1003C0001B0AF4D003F0FF03000EC01A704710F0B0
:1003D000030F0AD010F8012B11F8013B012A28BFA6
:1003E0009A42F4D0A2EB030070474DF8045D50F838
:1003F000042B01F0030521F0030151F8043B022D09
:1004000026D04DD822F07F45B5EB132FA2F1013C49
:100410002CEA020C0DD11CF0803C08BF51F8043BC3
:100420000AD185EA0205B5EB036F0CD150F8042B15
:10043000E8E74FEA13235BE03CF07F4C54D10B78A4
:100440004FEA126554E04FEA126503F0FF034FE0F4
:100450004FEA0245A2F1013C4FEA15452CEA020C95
:10046000B5EB134F18D11CF0803C08BF51F8043B8A
:1004700007D185EA0205B5EB034F09D150F8042BEB
:10048000E6E75FEA0C4C2FD10B884FEA12452FE0CC
:100490004FEA03434FEA12454FEA134328E000BFF7
:1004A00002F0FF05B5EB136FA2F1013C2CEA020C40
:1004B0000DD11CF0803C08BF51F8043B0AD185EAFD
:1004C0000205B5EB032F0AD150F8042BE8E74FEAF9
:1004D00013630DE012F0FF0F06D051F8043B4FEA12
:1004E000122523F07F4303E04FF0000020BC70474B
:1004F00005F0FF0203F0FF00012828BF904204BF6F
:100500002D0A1B0AF4D0A2EB000020BC704700BFEC
:10051000202383F31188094B9A6822B1002000231D
:1005200083F311887047064A01209269916B9363A7
:10053000C3E90221002383F311887047380C00209F
:100540001012002000000000000000000000000069
:10055000202383F311880023034A9269506B53636D
:1005600083F31188704700BF1012002000000000C4
:100570004FF080435B6A9BB2834201D200207047F8
:10058000012010B40449054C054B064A2070087040
:100590001A6010BC704700BF001B0020A01B002089
:1005A000FC1A0020BC9B00080000000000000000B6
:1005B00030B4202383F311880E4C4B1E2568184459
:1005C0002A441A44494200EA010302EA010062682F
:1005D0000344934207D89D4205D82360002383F348
:1005E000118830BC70470020002383F3118830BC91
:1005F000704700BFA81300200000000000000000AA
:1006000000200B4B0B4AD91D21F00701CB1AC3F177
:10061000780310B4DB0802F10C044B6051600860F1
:10062000C2E9034410609060506110BC704700BF85
:10063000201B0020041B0020000000000000000020
:1006400000220421044BDA609A61C3E900339A6006
:10065000C3E90411704700BF140C00200000000023
:10066000FFF7EEBF000000000000000000000000E7
:1006700000207047000000000000000000000000A3
:1006800000210422024B1960D960C3E9012270479E
:10069000800C0020000000000000000000000000AE
:1006A000002230B40E4B0F4903F1200401F108057C
:1006B00003F130001960C3E9021103F140015D60EC
:1006C000C3E9084430BCC3E90C00C3E910111A6146
:1006D0001A75C3E906229A629A639A64704700BF4A
:1006E000980C002000120020000000000000000014
:1006F000002230B40E4B0F4903F1200401F1100524
:1007000003F130001960C3E9021103F140015D609B
:10071000C3E9084430BCC3E90C00C3E910111A61F5
:100720001A75C3E906229A629A639A64704700BFF9
:10073000980C0020001200200000000000000000C3
:10074000002130B4094B0A4A03F1180402F11005E4
:1007500003F120005D60C3E9064430BC1A60C3E9C0
:100760000222C3E90800196119757047580C00206E
:100770003014002000000000000000000000000015
:10078000FFF7DEBF000000000000000000000000D6
:10079000FFF7D6BF000000000000000000000000CE
:1007A0000022024B9A60C3E90033704750140020C6
:1007B0000122024B9A60C3E9003370477C14002089
:1007C000704700BF000000000000000000000000B3
:1007D0000022024B9A60C3E9003370477C1400206A
:1007E00000224FF4A4700421024B1A60DA60C3E9BE
:1007F00001017047401400200000000000000000CC
:1008000000200B4B0B4AD91D21F00701CB1AC3F571
:10081000CC6310B4DB0802F10C044B60516008603B
:10082000C2E9034410609060506110BC704700BF83
:1008300090140020141400200000000000000000AC
:1008400008B5FFF785FE024A024B12601B6008BD27
:100850000C0C0020100C0020000000000000000024
:10086000FFF776BE0000000000000000000000005E
:10087000FFF7F6BF000000000000000000000000CD
:10088000FFF7EEBF000000000000000000000000C5
:10089000FFF7E6BF000000000000000000000000BD
:1008A000FFF7DEBF000000000000000000000000B5
:1008B0000020064A064B07499060C2E90022986072
:1008C000C3E90033C1E90011704700BF380C0020B4
:1008D000480C0020040C0020000000000000000074
:1008E0000021044B044A9960C3E90033C2E90022A5
:1008F000704700BF380C0020040C002000000000EE
:10090000FFF7EEBF00000000000000000000000044
:100910000022024B9A60C3E900337047380C002074
:100920000021044A044B9160C2E900229960C3E9A6
:1009300000337047380C0020480C002000000000F5
:10094000FFF7E6BF0000000000000000000000000C
:100950000022024B9A60C3E90033704770140020F4
:10096000FFF7F6BF000000000000000000000000DC
:10097000FFF7EEBF000000000000000000000000D4
:10098000FFF7E6BF000000000000000000000000CC
:100990000122024B9A60C3E90033704770140020B3
:1009A0000022014B1A607047D01B0020000000009D
:1009B00008B100207047012010B4044A044C054BD4
:1009C00020701070196010BC704700BF001B002021
:1009D000A01B0020FC1A0020000000000000000006
:1009E0004FF0804301201946044A10605A6A92B2BF
:1009F0004B6A9BB29A42FBD0704700BFA41B0020F9
:100A00000121074A2023116083F3118862B672B670
:100A100083F3118862B6002383F3118862B67047AE
:100A2000A41B0020000000000000000000000000E7
:100A300030B4202500240A4B03F1140053F8042B92
:100A40004AB185F3118892F8211041F0040182F82F
:100A5000211084F311888342F0D130BC704700BF6D
:100A6000BC1B00200000000000000000000000008F
:100A700018B370B584B06D46104E2C4601E0144694
:100A800018462246A6FB0013DB0803EB8301A0EB0C
:100A900041013031C9B2092802F8011BEFD8AA423E
:100AA00009D9074E01E014F8011D30680368DB68BE
:100AB0009847A542F7D104B070BD7047CDCCCCCCDF
:100AC000F81A0020000000000000000000000000F4
:100AD00028B9044B302118680368DB681847FFF712
:100AE000C7BF00BFF81A002000000000000000008F
:100AF000202383F31188064A064913688B4202D2E9
:100B0000591C18701160002383F31188704700BFCF
:100B1000B81B0020B81B00200000000000000000EF
:100B20004320FFF7E5BF00BF000000000000000009
:100B30004220FFF7DDBF00BF000000000000000002
:100B40004120FFF7D5BF00BF0000000000000000FB
:100B50000078FFF7CDBF00BF0000000000000000DC
:100B6000FFF7F6BF000000000000000000000000DA
:100B700070B5017889B10446094D28680368DB68BF
:100B8000984714F8011F0029F7D128680222BDE810
:100B90007040036803495B681847014DF5E700BFE3
:100BA000F81A0020789E00080000000000000000F5
:100BB000017859B138B50446054D28680368DB68EB
:100BC000984714F8011F0029F7D138BD704700BFBE
:100BD000F81A0020000000000000000000000000E3
:100BE000F0B40D4E0D4F421E35683B4603E013F83E
:100BF000014B844207D19D4212F8010FF7D810B97A
:100C00003760F0BC70470120054C064A064B207047
:100C100010701960F0BC7047B81B0020A81B0020A2
:100C2000A01B0020001B0020FC1A00200000000078
:100C3000F8B5012307251F4600240D4A0D4E136009
:100C400025FA04F3DB0707FA04F20ED556F8243030
:100C5000204625EA020501349847002DF0D1BDE871
:100C6000F84005490548FFF7BBBF0134E8E700BF7E
:100C7000A41B0020089F000834B1000848B10008F8
:100C800070B54C24074D28682D210368DB68984710
:100C9000013CF8D128680222BDE87040036802498F
:100CA0005B681847F81A0020789E000800000000D2
:100CB000022906D0032906D00129074818BF0020C1
:100CC000704706487047032A03D8054800EBC20066
:100CD00070470020704700BF38C20008ECC1000810
:100CE000C0C200080000000000000000000000007A
:100CF000202383F311880F4B5B6813F4006302D148
:100D000083F311887047EFF309834FF08071A3F1EB
:100D1000200243F8041C82F30988074A116892698B
:100D20008968926891428CBF044A054A43F8082CAE
:100D3000704700BF00ED00E01012002061020008C3
:100D40006402000800000000000000000000000035
:100D5000F0B40B4D4A1E2F6813187C1E4E420C44F3
:100D600004EA060033406A680344934204D89F4271
:100D700002D82B60F0BC70470020F0BC704700BF69
:100D8000A813002000000000000000000000000088
:100D900008B52022034682F31188006828B1026852
:100DA0001A60002383F3118808BDDA68002AF8D09E
:100DB000D3E901019047002383F3118808BD00BFE8
:100DC00001212DE9F041042220250020384E394B25
:100DD000394C316085F3118821682360196080F3F4
:100DE00011886168013A0B44F4D102230425DFF82D
:100DF000C880324F33604046FFF7CAFF003018BF4B
:100E000001203946FFF7D4FD00284FD1013DF2D132
:100E1000032329483360FFF7BBFFB0FA80F028496D
:100E20004009FFF7C5FD002840D104222027214BAF
:100E3000326003F1100087F311882268236043F8C1
:100E4000042B85F311889842F5D105230425DFF89A
:100E500068801A4F33604046FFF79AFF003018BF92
:100E600001203946FFF7A4FD00BB013DF3D1062365
:100E700011483360FFF78CFFB0FA80F01049400949
:100E8000FFF796FD90B9072104230E4A0A48316006
:100E90002560C4E90133E260FFF77AFFBDE8F04165
:100EA000B0FA80F008494009FFF782BDBDE8F08143
:100EB000A41B002060140020800C0020B0A00008BB
:100EC000BCA0000871060008CCA0000800000000CB
:100ED000202383F31188044B00229B69596B08433C
:100EE000586382F311887047101200200000000040
:100EF000202383F31188024602E08B4207D01A4672
:100F000013688342F9D1002383F3118870470B687B
:100F10001360002383F31188704700BF00000000B6
:100F200002222DE9F043354F354C8DB03A602460F4
:100F3000202686F31188012100254FF0FF33314828
:100F4000099181690DF11C0801912168CDE90A53CD
:100F500007910199C4F80080089185F3118886F300
:100F6000118821688069CDE9055302ABCDE9030200
:100F70000291236085F3118886F311882068224945
:100F8000001B18BF0120FFF713FD20B185F3118866
:100F90000DB0BDE8F083814680F3118803234146FC
:100FA00020463B60FFF7A4FF86F3118820681649AE
:100FB000001B18BF0120FFF7FBFC054620B189F399
:100FC00011880DB0BDE8F08380F31188042302A9D5
:100FD00020463B60FFF78CFF86F3118820680B49A1
:100FE000001BB0FA80F04009FFF7E2FC0028CDD1E9
:100FF00080F311880DB0BDE8F08300BFA41B002072
:101000000C0C00201012002008B1000814B10008D8
:10101000F0B4002102270125836846680469194A53
:1010200043F82C6C43F86C4C06684469C06803F8BC
:10103000265C03F8271C03F8287C43F8382C124D53
:1010400043F8684C43F8400C546943F80C0CA3F186
:101050006C0043F83C0C43F84C5CA3F1480043E9B6
:101060000511A3F12005A3F11C0143F8306C43F8EE
:10107000344C2061506143E90851F0BC43F8181C1E
:10108000704700BF1012002051020008000000004D
:10109000202383F3118890F82030072B0DD8DFE848
:1010A00003F0270C0C2308040C08426A93680133F0
:1010B0009360D0E9003213605A6010B400224FF000
:1010C000FF3481680C4B446280F820201B689A68CA
:1010D0008A42FBD25A680021C0E900321060586091
:1010E00081F3118810BC70470022436A1A60E4E75C
:1010F000002383F3118870471012002000000000C5
:10110000002210B404468168074B80F820201B6839
:101110009A688A42FBD25A682046C4E900321460B9
:101120005C6010BC704700BF10120020000000007F
:1011300038B5036898420CD004466FF001051A6870
:101140001846226054605D62FFF7DAFF2368A3420D
:10115000F5D138BD000000000000000000000000D4
:10116000026890420AD010B4034600241168104669
:1011700019604B60546210BCFFF7C2BF704700BFDC
:101180000F4B1A7DC2B91A6970B5D3E900618C1B87
:10119000B2EBA40F0DD09D6801322C1D9C60A142C2
:1011A0002860084898BF9E601A61FFF7D9FF0020A9
:1011B00070BD4FF0FF3070BD6FF00100704700BF91
:1011C000580C0020780C00200000000000000000F7
:1011D00038B50F4B1A7DBAB9D3E9004519692A1BF6
:1011E000B1EBA20F0DD0DA680131043A944288BF06
:1011F0002A1FDA60106007481961FFF7B1FF00206D
:1012000038BD4FF0FF3038BD6FF0010038BD00BF72
:10121000580C0020780C00200000000000000000A6
:1012200038B50F4B1A7DBAB91A6992B1DC685D689E
:10123000211DA9422468D96028BF1968046002F101
:10124000FF32084828BFD9601A61FFF789FF0020E4
:1012500038BD4FF0FF3038BD6FF0010038BD00BF22
:10126000580C0020700C002000000000000000005E
:10127000074B1A689A4209D010B40024116810462E
:101280004B601960546210BCFFF73ABF704700BF53
:10129000040C00200000000000000000000000001E
:1012A0000346426B90F8200011430A2859630AD084
:1012B0000B2800D070475A6A8A43FBD10022184697
:1012C0005A62FFF71DBF5A6A1142F7D1704700BF3B
:1012D00070B50468A0420FD006460D46E3682B4364
:1012E000E36015B12269134203D0D4E90101FFF78D
:1012F000D7FF2468A642F1D170BD00BF00000000F6
:1013000030B40446114A2568C3689069A5428363D6
:1013100017D0C16B4BB11A68934203D092689142C7
:1013200038BF1146DB68002BF5D1AA6B2B688160B2
:10133000236028465C60C4E90252AC6330BCFFF70E
:10134000DFBE0023AB6030BC704700BF101200202E
:1013500083680133002B836000DD704710B40246C0
:10136000002403681968184611604A605C6210BC6A
:10137000FFF7C6BE000000000000000000000000F3
:101380001E4B30B4D969026881420ED000244168F6
:101390001C330A6002689A425160C46003D08168BD
:1013A00093680B44936030BC70471846002440F8A3
:1013B0001C2F82425060CC601CD04FF080448D685E
:1013C0009168188D4B199360626A121A92B2934217
:1013D000E9D9991A01290BD94FF6FF72934228BF18
:1013E000134630BC4FF0804203449BB253637047B6
:1013F000931CF6E74FF08043DC60D4E71012002026
:1014000070B44FF08044656A2C4C0129C0E9032375
:10141000ABB204F11C02E5692CD9954236D0228D7D
:10142000AE689B1A9BB2591820D2B14209D24FF62E
:10143000FF73994294BF5218D2184FF0804392B272
:101440005A63B14204D92D68891BAE688E42FAD323
:101450004FF0FF326B68C0E900531860686081602C
:10146000AB68591AA960626270BC70472D68891B0D
:10147000AE68E6E795424FF00201D0D12385C4E97A
:1014800007000A46C0E9005581600BE04FF6FF7285
:101490008A4228BF0A462385C4E90700C0E90055EF
:1014A00092B281604FF080410024022013449BB22D
:1014B0004B630C61C86070BC704700BF1012002005
:1014C000EFF30583202383F31188704700000000A9
:1014D000C20710B410D5254BD3E9001499423BD074
:1014E0000022096801329942FBD18C4231D06468F4
:1014F000013A9C42FBD162BB830712D51B4BDA69D0
:1015000003F11C04A242196A2BD000231268013394
:10151000A242FBD191421CD04968013BA142FBD1C0
:10152000BBB910F0040012D0104B00201A699A4287
:1015300003D0126901309A42FBD15A699A4203D012
:10154000526901389A42FBD1003018BF012010BC0B
:101550007047012010BC70479C4218BF0022C6D1C2
:10156000CAE7A14218BF0023D6D1DAE71012002043
:10157000012070B5234D2024286084F31188FFF7E3
:10158000A7FF002383F3118880F00100C0B21E4939
:10159000FFF70EFA00B170BD06460220286084F302
:1015A0001188FFF795FF86F3118880F00100C0B223
:1015B0001649FFF7FDF906460028ECD103232B60FE
:1015C00084F311880420FFF783FF86F3118880F0ED
:1015D0000100C0B20E49FFF7EBF906460028DAD148
:1015E00004232B6084F311880820FFF771FF86F332
:1015F0001188BDE8704080F00100C0B20549FFF7D6
:10160000D7B900BFA41B0020A0AD0008B8AD0008EA
:10161000DCAD0008F8AD000800000000000000008C
:10162000FEE700BF00000000000000000000000016
:1016300000EB8100C26830B45369108A1A68194CF3
:10164000904228BF1046D860246D0D0104F18044FB
:1016500004F5C0449A682B592C44606078B1013875
:1016600003F1005320F0010003F5405302305B000A
:10167000104432F8024B904243F8044BF9D130BC8D
:10168000890001F1804101F5B8410B6823F4F04372
:1016900023F0400383F0300343F4004343F080031E
:1016A0000B607047005C004000000000000000007C
:1016B00000EB8103F0B4DE68336813F0030367D0F6
:1016C000022B63D9032B0CBF4FF4C0634FF400739C
:1016D000314A7469126D0F0102F1804202F5C04275
:1016E000BD1884B14FF0000C348AC5F804C0D0F89E
:1016F00084C0013424F001046444C0F8844043F001
:10170000200347F802C0B269B2B1748A3E2C04F1DA
:10171000FF3232D842F001020132520202F47C421E
:10172000EA60D0F88420013424F001041444C0F8A5
:10173000844043F40053AA608A0002F1804202F51B
:10174000B84210684404106848BF43F48043400620
:1017500048F2800047F6700448BF43F04003194345
:1017600021F4784121F0F001014311601168234018
:101770004B4003431360F0BC704742F01F0201323C
:10178000064E521146EA822292B2C9E700239FE731
:101790004FF400739CE700BF005C00400080FFFF37
:1017A00000214368F0B4DB6880278B420CBF4FF404
:1017B0001C464FF41E464025054B064C19655964DE
:1017C000DF641E64C0F88450C460F0BCFFF770BFD3
:1017D000005C00409C9E000800000000000000002B
:1017E00090F86420152A15D8012340F641619340F2
:1017F0000B4270B5044625D113F480150BD0C36895
:101800009B695B682BB9036F03B19847002384F889
:10181000643070BD70479B02FBD50B22202380F8FB
:10182000642083F31188C36802895B6942F0010276
:10183000028129469D60C3E90055FFF7F9FE85F353
:10184000118870BD48F280060D4943680A681D681A
:1018500022F4F04222F0400282F0100232430A6089
:101860000B6823F4904323F0700383F480533343D5
:101870000B600DB10621A847062384F8643070BDC3
:10188000005C0040000000000000000000000000BC
:1018900090F87630426880F87E300649126843F04E
:1018A000800310B50446CB640AB10121904703239D
:1018B000237010BD005C004000000000000000002C
:1018C000704700BF000000000000000000000000A2
:1018D00090F87430024603F06003202B01D0002002
:1018E000704790F87530202BF9D3212B07D80720AB
:1018F0000021074BC2E91B01936601207047222B90
:10190000EDD100230120C2E91A331367704700BFED
:10191000300C00200000000000000000000000006B
:10192000012370B5324D334C33482B60FFF740F93B
:101930007420FFF79DF82046FFF71AF902232F487D
:101940002B60FFF735F94420FFF792F82046FFF7A8
:101950000FF9032304262A482B60FFF729F91420E6
:10196000FFF786F82046FFF703F926482E60FFF7B9
:101970001FF90C20FFF77CF82046FFF7F9F8052344
:1019800021482B60FFF714F91020FFF771F820466B
:10199000FFF7EEF806231D482B60FFF709F9082032
:1019A000FFF766F82046FFF7E3F8072318482B6097
:1019B000FFF7FEF83046FFF75BF82046FFF7D8F850
:1019C000082314482B60FFF7F3F81420FFF750F8B2
:1019D0002046FFF7CDF809230F482B60FFF7E8F802
:1019E0002820FFF745F82046BDE87040FFF7C0B853
:1019F000A41B00204CB400083CB4000854B40008F8
:101A000064B4000874B4000884B4000894B40008F6
:101A1000A4B40008B4B40008C4B400080000000076
:101A200038B50125C84BC94CC9481D60FFF7C0F83F
:101A30001020FFF71DF82046FFF79AF8C548FFF77A
:101A4000B7F84FF4FA60FFF713F82046FFF790F865
:101A5000C148FFF7ADF82020FFF70AF82046FFF74E
:101A600087F8BE48FFF7A4F82020FFF701F82046CA
:101A7000FFF77EF8BA48FFF79BF80220FEF7F8FF61
:101A80002046FFF775F8B748FFF792F80020FFF7F8
:101A90001FF82046FFF76CF8B348FFF789F80020DD
:101AA000FFF716F82046FFF763F8B048FFF780F815
:101AB0000020FFF70DF82046FFF75AF8AC48FFF773
:101AC00077F82846FEF7D4FF2046FFF751F8A948DB
:101AD000FFF76EF80020FEF7FBFF2046FFF748F8FF
:101AE000A548FFF765F82846FEF7C2FF2046FFF736
:101AF0003FF8A248FFF75CF82846FEF7B9FF2046FA
:101B0000FFF736F89E48FFF753F82846FEF7B0FF78
:101B10002046FFF72DF89B48FFF74AF80020FEF714
:101B2000D7FF2046FFF724F89748FFF741F82846EB
:101B3000FEF79EFF2046FFF71BF89448FFF738F8A2
:101B40000020FEF7C5FF2046FFF712F89048FFF788
:101B50002FF82846FEF78CFF2046FFF709F88D483E
:101B6000FFF726F82846FEF783FF2046FFF700F828
:101B70008948FFF71DF82846FEF77AFF2046FEF752
:101B8000F7FF8648FFF714F82846FEF771FF204656
:101B9000FEF7EEFF8248FFF70BF82846FEF768FFD6
:101BA0002046FEF7E5FF7F48FFF702F80020FEF72A
:101BB0008FFF2046FEF7DCFF7B48FEF7F9FF284643
:101BC000FEF756FF2046FEF7D3FF7848FEF7F0FFFA
:101BD0002846FEF74DFF2046FEF7CAFF7448FEF781
:101BE000E7FF2846FEF744FF2046FEF7C1FF714895
:101BF000FEF7DEFF2846FEF73BFF2046FEF7B8FF64
:101C00006D48FEF7D5FF2846FEF732FF2046FEF767
:101C1000AFFF6A48FEF7CCFF2846FEF729FF2046B3
:101C2000FEF7A6FF6648FEF7C3FF2846FEF720FF33
:101C30002046FEF79DFF6348FEF7BAFF0820FEF737
:101C400017FF2046FEF794FF5F48FEF7B1FF2846D6
:101C5000FEF70EFF2046FEF78BFF5C48FEF7A8FF5D
:101C60002846FEF705FF2046FEF782FF5848FEF79C
:101C70009FFF2846FEF7FCFE2046FEF779FF5548F9
:101C8000FEF796FF2846FEF7F3FE2046FEF770FFAC
:101C90005148FEF78DFF2846FEF7EAFE2046FEF784
:101CA00067FF4E48FEF784FF0020FEF711FF204635
:101CB000FEF75EFF4A48FEF77BFF0020FEF708FFB5
:101CC0002046FEF755FF4748FEF772FF0020FEF75B
:101CD000FFFE2046FEF74CFF4348FEF769FF002059
:101CE000FEF7F6FE2046FEF743FF4048FEF760FF92
:101CF000FF20FEF7BDFE2046FEF73AFF3C48FEF708
:101D000057FF8020FEF7B4FE2046FEF731FF39482A
:101D1000FEF74EFF0020FEF7DBFE2046FEF728FF11
:101D20003548FEF745FF0020FEF7D2FE2046FEF7BD
:101D30001FFF3248FEF73CFF0020FEF7C9FE204699
:101D4000BDE83840FEF714BFA41B0020ACB6000865
:101D500000A600082CA6000858A6000884A60008C3
:101D6000B0A60008DCA6000808A7000834A70008F1
:101D700060A700088CA70008B8A70008E4A700081F
:101D800010A800083CA8000868A8000894A800084B
:101D9000C0A80008ECA8000818A9000844A9000879
:101DA00070A900089CA90008C8A90008F4A90008A7
:101DB00020AA00084CAA000878AA0008A4AA0008D3
:101DC000D0AA0008FCAA000828AB000854AB000801
:101DD00080AB0008ACAB0008D8AB000804AC00082E
:101DE00030AC00085CAC000888AC0008B4AC00085B
:101DF000E0AC00080CAD000838AD000864AD000888
:101E00000122194B10B519481A60194CFEF7B0FEA3
:101E10001848FEF7CDFE0020FEF75AFE2046FEF7DA
:101E2000A7FE1548FEF7C4FE1448FEF7A1FE1448AD
:101E3000FEF7BEFE0620FEF71BFE2046FEF798FECC
:101E40001048FEF7B5FE0020FEF742FE2046FEF7E2
:101E50008FFE0D48FEF7ACFE0020FEF739FE20464F
:101E6000BDE81040FEF784BEA41B0020D8A40008E3
:101E7000ACB600080CA5000838A5000864A5000849
:101E80006CA5000898A50008C4A500080000000083
:101E900001221C4B10B51C481A60FEF789FE1B4836
:101EA000FEF766FE1A48FEF783FE1A48FEF760FE4C
:101EB0001948FEF77DFE1948FEF75AFE1848FEF74E
:101EC00077FE1848184CFEF753FE1848FEF770FED0
:101ED0000420FEF7CDFD2046FEF74AFE1448FEF72B
:101EE00067FE0820FEF7C4FD2046FEF741FE1148BC
:101EF000FEF75EFE0820FEF7BBFD2046BDE8104061
:101F0000FEF736BEA41B00205CA3000888A30008CF
:101F100090A30008BCA30008C8A30008F4A300080D
:101F200000A400082CA40008ACB6000844A40008D3
:101F300070A400089CA4000800000000000000003D
:101F4000536910B400EB8104E26023B100241C60EB
:101F50005C609C60DC60936923B100221A605A6067
:101F60009A60DA6010BCFFF7A3BB00BF000000005E
:101F700038B50D46B0B1044628601149204607F037
:101F8000FFFD215C0444222912D00D49204607F0B0
:101F9000D5FD98B10023421C2A600370237823B139
:101FA000204638BD0C68002CE7D10024204638BDFF
:101FB0000134204607F0D4FC0028EBD12860EDE77F
:101FC00034A3000800000000000000000000000032
:101FD0000EB42DE9F04F86B00FAC54F8043B8246A6
:101FE0001F4617F8011B02944FF0000871B1252914
:101FF00012D0DAF800305046DB6808F10108984743
:102000003B461F4617F8011B0029F0D1404606B099
:10201000BDE8F04F03B070475A782D2A03BF9A7875
:102020009F1C01200020302A00F0AF802023019364
:1020300000217D1C06E054F8043BDBB215F8012BAF
:1020400003EB4601A2F13003DBB2092B2F4601EB73
:102050008106F3D92A2AEED02E2A4FF0000544D06B
:1020600002F0DF034C2B4FD0A2F14406342E00F2D5
:102070003481DFE816F0030132013201320132010E
:102080000301320132013201320132019301320186
:1020900032013201320132018B01320132019001F1
:1020A0003201320132013201320132013201320198
:1020B00032013201B9000301320132013201320131
:1020C0000301320132013201320132019301320146
:1020D000320132018F0032018B0132013201900155
:1020E00054F8043BDBB203EB460517F8012B05EB74
:1020F0008506A2F13003DBB2092BF4D92A2AEFD0EE
:1021000002F0DF034C2BAFD13E78002E00F0E580CB
:10211000A6F144030137342B00F2DE80DFE813F030
:10212000AE00DC00DC00DC00DC00AE00DC00DC002B
:10213000DC00DC00DC00F100DC00DC00DC00DC00AA
:10214000DC001D01DC00DC002201DC00DC00DC0026
:10215000DC00DC00DC00DC00DC00DC00DC00640017
:10216000AE00DC00DC00DC00DC00AE00DC00DC00EB
:10217000DC00DC00DC00F100DC00DC00DC003A000C
:10218000DC001D01DC00DC00220130237A780193A1
:1021900001374DE754F8046B002E00F00B8147F631
:1021A000FF723378002D08BF1546002B00F009811F
:1021B000334603E0DA433244EA4203D413F8012FF2
:1021C000002AF7D120229B1BB1EB030903F1FF3B4F
:1021D000019216D5002840F08C80BBF1000FA8BFFB
:1021E00081462CDA3B460CE754F8043B20228DF85C
:1021F0000C304FF0000B0123019203AEB1EB030949
:10220000E8D4002871D15D1AB9F1000F6CD0317893
:10221000DAF800302D29DB6800F0A980A94602E039
:10222000DAF80030DB6801995046984719F1010946
:10223000F6D1BBF1000FA8EB0508FFF6E1AE06EB07
:102240000B05DAF8003016F8011BDB68504698479A
:10225000AB1B002BF5DA08F10108D844B9F1000FE7
:102260003FF4CEAE4D46DAF800300199DB685046B7
:102270009847013DF7D1C8443B46C2E6D4F800E098
:10228000221DBEF1000F1446C0F28B8003AE334610
:1022900003F10B0BDC4600E0AE46524ABEF1090FDB
:1022A000A2FB0E254FEAD50505EB8502AEEB4202F7
:1022B00002F13002D2B20CF8012DEDDCABEB0C0BCD
:1022C0009B4401E01CF8012F03F8012B5B45F9D179
:1022D0009B1B03F1FF3B91E732464FF0000B0123BC
:1022E0008DF80C2003AE89E7A946BBF1000FA6DAF2
:1022F000B4E7BBF1000FA8BF4FF000099FDA3B46DF
:102300007FE64FF0080E54F8042B0DF1170300E0A0
:1023100063461646B2FBFEF20EFB126909F1300568
:10232000392DC8BF09F13705EDB2764503F1FF3C01
:1023300003F8015CECD21A460DF1170303AEA3EBD0
:102340000C03B6469C4401E012F8015B62450EF8AE
:10235000015BF9D103F1FF3B50E754F8042B4FF038
:102360000A0ED2E754F8042B4FF0100ECDE7019A75
:10237000302A7FF453AF50469847DAF8003008F11E
:102380000108DB6801360BF1FF3B47E74FF00A0E0F
:1023900054F8042BB9E74FF0100EF9E74FF0080E90
:1023A000F6E72D23CEF1000E8DF80C3003AE0DF1C3
:1023B0000D036DE71DB947F6FF750B4EF8E60A4EA3
:1023C000F6E630B94D4241B120234FF0FF3B019377
:1023D0001DE720238946019340E72023A946019366
:1023E0003CE700BFCDCCCCCC249C00080000000012
:1023F000002918DC70B504460C4E0D4D05E033681D
:102400004FF480625B6829469847236800219B69E6
:102410002046984701300548F1D02046BDE870407D
:102420000449FFF7D5BD0449FFF7D2BDE80C0020F1
:10243000000800207C9E00086C9E00080000000040
:1024400000290CDC202383F311884FF08042002305
:10245000526A83F31188044992B2FFF7B9BD034A67
:102460000349FFF7B5BD00BFD89D0008C49D000813
:10247000CC9D0008000000000000000000000000EB
:10248000012903D0034A0449FFF7A2BD126803499A
:10249000FFF79EBD2C9C0008CC9D00083C9C0008CA
:1024A00000292EDC10B5044682B0184A1849FFF7FF
:1024B0008FFD184A18492046FFF78AFD174A184928
:1024C0002046FFF785FD174A17492046FFF780FD94
:1024D000164A17492046FFF77BFD164A1649204643
:1024E000FFF776FD154A16492046FFF771FD154B9B
:1024F00020460093144A154B1549FFF769FD02B0B9
:1025000010BD144A1449FFF763BD00BF64A500085D
:102510004C9C0008F4A30008609C000888A30008F5
:10252000749C0008BCA30008889C00082CA4000828
:102530009C9C0008B09C0008DC9C0008F09C0008F3
:10254000009D00083C9D0008189D0008149D00088F
:10255000249D0008449C0008CC9D00080000000059
:1025600070B5052912D8DFE801F043111243430387
:10257000202383F311882A4C0121201DFEF7A8FE99
:102580000023237584F84C3083F3118870BD064610
:10259000202383F311880025214C224A0121FFF7D3
:1025A000CFFC02213046204AFFF7CAFC236B04F11E
:1025B0000C00C4E90733A561C4E90D55FEF7B8FD69
:1025C000D4E9192304F144002265C4E915332575C3
:1025D000C4E91B55FEF7ACFD201D012184F84C50C9
:1025E000FEF776FE204607F033F885F3118870BDBC
:1025F000202383F311880125094C0221201DFEF7B9
:1026000067FE04F10C002575FEF792FD04F144000D
:1026100084F84C50FEF78CFD002383F3118870BDC5
:10262000E80C0020C09E0008E49E000800000000A6
:10263000113138B550F8214094B1202383F311882B
:10264000D4F88C241368527903EB8203DB689B690E
:102650005D6835B9204606F0FBFF002383F311883F
:1026600038BD04216018FEF733FEE369616A1D601E
:10267000A06AA26903448B42E36128BF236B02F185
:102680000102A26104F10C0028BFE361FEF768FDBE
:10269000E0E700BF000000000000000000000000B4
:1026A00070B50C68A14212D00D46064602E02468BF
:1026B000A5420CD008223146A01807F0B5F9002831
:1026C000F5D114B1636801336360204670BD002406
:1026D000204670BD00000000000000000000000067
:1026E000F8B50C680D46A1420646174603D10DE029
:1026F0002468A5420AD008223146A01807F094F9B0
:102700000028F5D114B104462046F8BD3846FEF73E
:102710003FFB04460028F7D008223146104407F05A
:10272000D3F901222B682046C4E900322C60F8BDA1
:1027300070B5202383F31188124A10689469836866
:10274000A1688B4203D2002383F3118870BD012658
:10275000002503685A60136080F82060906184F857
:10276000205000E01B689A689142FBD95A682146C4
:10277000C4E9003214605C60FDF762FD002383F35E
:10278000118870BD10120020000000000000000041
:1027900038B50446084DFFF7CBFFFFF7C9FFFFF739
:1027A000C7FFFFF7C5FF2368AA690433236092F8C7
:1027B00021305B07EFD538BD10120020000000006B
:1027C000164B70B49E69856804464162B0688542C4
:1027D0000DD8002284F820201B689A689542FBD906
:1027E0005A68C4E9003214605C6070BC7047002114
:1027F0001A4686F82010126891688842FBD9012099
:102800005168C6E900210E60566084F82000314608
:1028100020469C6170BCFDF713BD00BF1012002064
:10282000F8B5202484F31188012400250227C0E98B
:10283000372300F1DC03164EC0F80C31154B164A55
:10284000C0F8FC30736980F8224100F58074C0E95B
:102850004463C0F80811C0F83C11A0F82071C0F81A
:102860001821C0E94D5500F59472C0F81C011C6197
:1028700000F59673C0E94A23C0F830312946204656
:102880007461FFF79DFF85F311882046F8BD00BFF6
:102890001012002051020008049C000800000000F3
:1028A00008B5202383F31188064B1868984205D099
:1028B0000268002153601A60FFF782FF002383F350
:1028C000118808BD040C002000000000000000007A
:1028D000F0B5154D87B0074628460E461446FEF75C
:1028E00057FAE0B16B68114A0344029300970190D4
:1028F000039605940492202383F311886846FEF71B
:1029000087FB0223056480F8213000210446FFF78D
:1029100057FF002383F31188204607B0F0BD04461B
:10292000204607B0F0BD00BF40140020610B000836
:1029300008B5202383F3118883680133002B83605B
:1029400003DD002383F3118808BD034600680021DE
:1029500002681A605360FFF733FF002383F3118886
:1029600008BD00BF000000000000000000000000E3
:1029700030B40125074B99691A6881F82000146862
:102980001046636082F820501C6030BC9A61FDF7ED
:1029900057BC00BF10120020000000000000000023
:1029A0000C4A10B52023946983F31188636B43B1FB
:1029B0005842184023EA00036363002383F311881D
:1029C00010BD4FF0FF330A206362FFF7D1FF636B46
:1029D000EEE700BF10120020000000000000000021
:1029E0000C4A10B52023946983F31188606B20B1E1
:1029F0000023636383F3118810BD4FF0FF330A2077
:102A00006362FFF7B5FF0023606B636383F3118894
:102A100010BD00BF101200200000000000000000E8
:102A20000C4A10B52023946983F31188636B03F07B
:102A30000502052A05D005230B206362FFF798FFE6
:102A4000636B23F005036363002383F31188052080
:102A500010BD00BF101200200000000000000000A8
:102A6000074A10B52023946983F311880320FFF7E8
:102A70007FFF636A002BF9D0002383F3118810BD18
:102A80001012002000000000000000000000000004
:102A900030B54B1C87B012D005460C4C01A8A36979
:102AA0000B4AFEF7ADFC2846FFF762FF049B13B10B
:102AB00001A8FEF765FCA369586A07B030BDFFF7AF
:102AC00057FF024CA369586A07B030BD10120020AE
:102AD000911000080000000000000000000000004D
:102AE000202383F31188104B99684A1E002A9A60AC
:102AF00004DB0020002383F31188704780B10B4A68
:102B000010B592695C685362C2E9003401462260E4
:102B100005205A60FFF7BCFF002383F3118810BD26
:102B200099604FF0FF30E5E770140020101200208C
:102B300010B5202383F31188164CA268531E002B76
:102B4000A36007DBE068C8B10368E360002383F398
:102B5000118810BDE0B1104B62689B690146C3E962
:102B600000425C62052013606360FFF791FF00285C
:102B7000E8D00020002383F3118810BDA369002B47
:102B8000F7D0D4E904019847002383F3118810BDDE
:102B9000A260DBE7140C00201012002000000000EF
:102BA000012208B5064BC8201A60FFF7C1FFBDE837
:102BB0000840B0FA80F003494009FDF7F9BE00BFB4
:102BC000A41B0020BCA000080000000000000000C2
:102BD000012070B5574D584C2860A269202383F31B
:102BE0001188536B002B74D183F311885349FDF77F
:102BF000DFFE00B170BDA369202282F311885A6BF9
:102C0000002A77D182F3118801204C49FDF7D0FECC
:102C10000028EFD1A369202282F311885A6B013278
:102C20006CD080F3118801204449FDF7C1FE0028D3
:102C3000E0D10223A6692B60202383F31188756BF2
:102C40004DB94FF0FF33642173620A20FFF720FF74
:102C5000002862DB756B6842284025EA0005756331
:102C6000002383F31188B0FA80F040093349FDF75F
:102C70009FFE0028BED1A669202383F31188756BBF
:102C8000002D3FD00023736383F31188B5FA85F0DC
:102C900040092A49FDF78CFE05460028AAD1A469FF
:102CA000202383F31188636B013308D04FF0FF3387
:102CB000642163620B20FFF7EBFE002835DB002365
:102CC000636383F311882846BDE870401B49FDF714
:102CD0006FBE5842184023EA00035363002383F376
:102CE0001188B0FA80F015494009FDF761FE00280F
:102CF00080D180E7586380F3118886E7586380F3BA
:102D0000118891E74FF0FF33642173620A20FFF7C7
:102D1000BFFE002805DB756BB4E785F31188012041
:102D2000A4E785F311880120B3E785F31188012515
:102D3000C9E700BFA41B002010120020E0B100086A
:102D400008B50146202383F311880820FFF7A0FE71
:102D5000002383F3118808BD00000000000000007C
:102D60000226B0460B4B0C4A9B6980B50B4D0C4FAD
:102D70009A613B78C5F81480042B0CBF4FF4FA74A9
:102D80004FF47A742046FFF7DBFF20462E61FFF7F1
:102D9000D7FFEEE710120020B49B0008000C0140A2
:102DA000781100200000000000000000000000007A
:102DB000012370B54FF08045274E642033606C6A64
:102DC000FFF7BEFF04F1670080B2FDF7D1FB00B151
:102DD00070BD022333606C6AC820FFF7B1FF04F1B5
:102DE000CB0080B2FDF7C4FB0028F1D10323336090
:102DF0006C6AC820FFF7A4FF04F1CB0080B2FDF796
:102E0000B7FB0028E4D1042333606C6A4FF4FA6006
:102E1000FFF796FF04F2D37080B2FDF7A9FB0028FC
:102E2000D6D1052333606C6A2023A4B283F31188C2
:102E30006B6A04F16401C91A89B249B9002383F3AA
:102E4000118804F1670080B2BDE87040FDF790BBC7
:102E50000820FFF71DFEF1E7A41B00200000000082
:102E600008B50120FFF76CFF202383F311884FF092
:102E700080420023506A83F3118880B208BD00BFEE
:102E80002DE9F84F01230024DFF888B0A246CBF8E3
:102E90000030FFF7E5FF4FF0200900F5FA60184F0A
:102EA000184E194D1FFA80F889F3118800233A460D
:102EB00030460121FEF7A4FA3A46002342F210718F
:102EC0002846FEF79DFA3046FEF75AFA2846FEF7E6
:102ED00057FA8AF311884FF080435B6A01349BB242
:102EE0009845E1D802230948CBF80030FDF760FE91
:102EF0006000FDF7EDFDBDE8F84F0548FDF738BE71
:102F0000C1070008D41B0020E81B0020D0B3000834
:102F1000E0B30008A41B0020000000000000000037
:102F20002DE9F04F8B46A04C83B020609F48FDF701
:102F30001FFEDBF80030002B00F0A4812A259C4EF8
:102F4000294602E0294616F8015F20680368DB681D
:102F50009847002DF6D1DBF80000FDF709FE2A2581
:102F60009448FDF705FE944E294602E0294616F8DE
:102F7000015F20680368DB689847002DF6D12A2599
:102F80008E48FDF7F5FD8E4E294602E0294616F8DB
:102F9000015F20680368DB689847002DF6D12A2579
:102FA0008848FDF7E5FD884E294602E0294616F8D7
:102FB000015F20680368DB689847002DF6D18348DD
:102FC000FDF7D6FD7948FDF7D3FD814B01951D70C6
:102FD000DBF80430019A53F822304FEA8208002BC4
:102FE00000F02B814C2520683D210368DB68984761
:102FF000013DF8D13D2520687649036802225B68CF
:103000009847754E294602E0294616F8015F206868
:103010000368DB689847002DF6D1019B6F4E0133A2
:10302000184601932825FDF753FD202102E029468B
:1030300016F8015F20680368DB689847002DF6D119
:10304000DBF8043053F808301D68297839B120685E
:103050000368DB68984715F8011F0029F7D160481D
:10306000FDF786FD0027DBF80430BE0053F808208A
:10307000526852F82720002AACD02D25FDF700FE1B
:10308000DFF87891294602E0294619F8015F2068A7
:103090000368DB689847002DF6D10198FDF718FD0D
:1030A00020682E2103680137DB6898473846FDF712
:1030B0000FFDDFF828912825202102E0294619F884
:1030C000015F20680368DB689847002DF6D1DBF8C4
:1030D000043053F808305B689B591D68297839B172
:1030E00020680368DB68984715F8011F0029F7D1AD
:1030F0003B48FDF73DFD4FF4C870FFF721FE00226D
:10310000DBF80430374D53F80830DFF8F4905B6893
:103110002A7053F806A0344EDAF80430C9F800607B
:1031200003B19847DAF80C309847DAF8083003B161
:1031300098472B781BB92D48FDF71AFD93E72D25ED
:10314000DFF8C0A0294602E029461AF8015F20688E
:103150000368DB689847002DF6D1254B4FF05B0ADA
:103160001868FDF7B5FC234D202102E0514615F803
:1031700001AF20680368DB689847BAF1000FF5D10A
:10318000D9F80030B3420AD9174D206815F8011B51
:103190000368DB689847D9F800309D42F5D3164E96
:1031A00020255D2133E000BFF81A0020ACB60008EE
:1031B000F1C0000808C100080DC1000820C10008C6
:1031C00039C10008B09C00084DC10008F09C0008FF
:1031D000001B0020789E000861C1000875C100082E
:1031E00078C10008A01B0020A81B0020B0C1000867
:1031F000A41B0020A5C10008A9C100087DC10008CA
:10320000B81B00208DC10008294616F8015F206810
:103210000368DB689847002DF6D11C4B1D682978A0
:1032200039B120680368DB68984715F8011F002949
:10323000F7D11748FDF79CFC15E7FDF721FD154870
:10324000FDF796FC69254621134E02E0294616F843
:10325000015F20680368DB689847002DF6D10F4BAB
:103260001B783BB90E48FDF783FC0C4B187803B074
:10327000BDE8F08F0B48FDF77BFC084B187803B0D6
:10328000BDE8F08F0848FDF773FC68E6FC1A0020E3
:10329000ACC10008ACB60008C5C10008001B002086
:1032A000BCC10008D4C10008F8C00008000000003C
:1032B0000149FFF735BE00BF04B60008000000005A
:1032C0000149FFF72DBE00BF14A300080000000055
:1032D00038B5202383F311880C4CA269134653F8A8
:1032E0002C0F984209D00D2501680024D1624B6053
:1032F00080F8205084F3118838BD0E20FFF738FB8A
:10330000A269D06A02F12C03EDE700BF1012002081
:1033100070B520260025FFF7DBFF446A86F311888D
:103320002146FFF74DFA85F31188002CF3D170BDCB
:103330000E4B10B520229C6982F311886162026BEA
:1033400000F12C01C4E90012146090F820200463FD
:103350000E2A07D00C20FFF70BFB606A002383F3D3
:10336000118810BDFDF7CCFEF4E700BF101200205D
:10337000F8B50646FFF774FD00244FF0804700F5CE
:10338000FA6085B201213046FFF7D2FF7B6A013433
:103390009BB29D42F6D830460021FFF7C9FF204678
:1033A000F8BD00BF000000000000000000000000A9
:1033B00010B504464121FFF7BBFF20464221FFF72D
:1033C000B7FF20464321FFF7B3FF2046BDE810407A
:1033D0004421FFF7ADBF00BF000000000000000067
:1033E000F8B582682D4B9C6942B3A1689368054685
:1033F000994207D992F820309160062B36D0072BDE
:1034000021D09BB12B4603E09968A268914202D378
:103410001B689D42F8D15A680620C4E90032146046
:103420005C606562BDE8F840FFF7A2BAD2E90031FE
:1034300010460B605960FDF763FEE3E7A36BC0E93C
:103440000243A063F8BD566A576810683346386077
:10345000476002E09868884202D31B689E42F9D117
:103460005968C2E900310A605A60CBE7566A57686A
:10347000106833463860476002E09868884202D39B
:103480001B689E42F9D15968C2E900310A605A604E
:10349000B268A16893688B42ACD3B3E710120020E6
:1034A00008B5202383F31188FFF79AFF002383F3E5
:1034B000118808BD000000000000000000000000AE
:1034C000202383F311888368013B002B836004DB96
:1034D0000020002383F311887047034610B5084C81
:1034E0000520A26953625968C2E900310A605A6036
:1034F000FFF73EFAA369586A002383F3118810BDD1
:103500001012002000000000000000000000000079
:1035100001232DE9F041DFF87C800025C8F8003058
:10352000FFF79EFC4FF0804700F5FA60164C86B21C
:103530002046FFF7C5FF2046FFF7FAF92046FFF7C0
:10354000BFFF2046FFF7F4F92046FFF7B9FF2046FA
:10355000FFF7EEF92046FFF7B3FF2046FFF7E8F943
:103560007B6A01359BB29E42E2D802230748C8F825
:103570000030FDF71DFBA800FDF7AAFABDE8F041F9
:103580000348FDF7F5BA00BF7C140020D0B3000853
:10359000FCB30008A41B0020000000000000000095
:1035A00038B5084CA36993F821305A0708D4064D62
:1035B0002846FFF785FFA36993F821305B07F7D50D
:1035C00038BD00BF101200207C1400200000000055
:1035D00010B5044C2046FFF773FF2046BDE81040AD
:1035E000FFF7A6B9701400200000000000000000E2
:1035F00010B504460348FFF763FF2078BDE810408C
:10360000FDF776BA701400200000000000000000F2
:1036100038B5104B9C69A36A04F12805AB4260627F
:1036200007D01A681846A262FDF76AFDA36AAB428A
:10363000F7D194F822303BB994F821309B0703D19D
:10364000D4E9043213615A610F20BDE83840FFF716
:103650008FB900BF10120020000000000000000021
:103660002DE9F04F074606687B689BB07C493046E1
:103670000193FEF7ADFC30467A49FEF7A9FCDFF86E
:103680001882DFF81892D8F8183093F821305B07C9
:1036900000F188800DF1280A554649463046FEF76C
:1036A00097FC3C6823689B6801220DF10F012046BE
:1036B000984700286ED09DF80F10042966D008297D
:1036C0000DF1670211D07F290FD00D2921D01F29BC
:1036D0002368E8D99542E6D2DB68204698479DF8F2
:1036E0000F3005F8013B2368DDE755452368DAD044
:1036F000DB6808212046984723682021DB682046A4
:10370000984723680821DB6820469847013D2368D5
:10371000C9E74FF0000B52492046FEF759FC5046CE
:1037200085F800B004A9FEF723FC04A98246002016
:1037300005ADFEF71DFC60B1BBF1040F1FD045F8CD
:10374000040B04A900200BF1010BFEF711FC00286B
:10375000F2D11AAB03EB8B0343F8540CBAF1000F10
:1037600091D041495046FCF7F5FD40BBBBF1000F3D
:1037700036D03D4A3D493046FEF72AFC83E73C49B6
:103780003046FEF725FC002309937CE720463949A3
:10379000FEF71EFC32493046FEF71AFC3046364929
:1037A000FEF716FC202383F3118800213348FDF730
:1037B0008FFD0020FFF72CFF1BB0BDE8F08F304DD0
:1037C000304802E055F8080F00B35146FCF7C2FD3F
:1037D0000028F7D16B6805AA59463046984752E74A
:1037E00029493046FEF7F4FB254C264A274D294649
:1037F0003046FEF7EDFB54F8082F002AF7D1019B65
:1038000093B917493046FEF7E3FB3CE7019DEDB164
:10381000286818B91AE055F8080FB8B15146FCF7F6
:1038200099FD0028F7D1D5E7019C2268002AE8D04D
:10383000164D29463046FEF7CBFB54F8082F002AD8
:10384000F7D107493046FEF7C3FB1CE75246104943
:103850003046FEF7BDFB0F493046FEF7B9FB12E7D5
:10386000789E000848B6000888B60008CC9D00087D
:1038700070B6000864B6000868B600088814002016
:10388000B8B6000840B6000890B60008A0B6000818
:10389000A4B60008A8B60008101200205CB6000804
:1038A00000290CDC08B5202383F311880648002189
:1038B000FDF70EFDBDE808400020FFF7A9BE034A52
:1038C0000349FEF785BB00BF8814002040B60008FE
:1038D000CC9D000800000000000000000000000077
:1038E000EFF30983203383F30988002383F31188DE
:1038F000704700BF00000000000000000000000052
:1039000061B10246074B10B49B6944680420C3E9C7
:1039100000242360536010BCFFF7BAB84FF0FF30AB
:10392000704700BF101200200000000000000000DF
:10393000202383F31188FFF76BBE00BF0000000057
:10394000FFF7F6BF000000000000000000000000CC
:10395000012130B400250D4A1068946903685A604B
:1039600080F82010A1681360906184F8205000E076
:103970001B689A689142FBD35A682146C4E9003219
:1039800014605C6030BCFCF75BBC00BF1012002010
:10399000044B1A689B6992689B689A4200D87047EA
:1039A000FFF7D6BF1012002000000000000000004A
:1039B00038B5202383F31188154CA3685A1C002ABC
:1039C000A26019DD002BA36006DBFFF7E1FF0020FA
:1039D000002383F3118838BD0E4A6368956905207A
:1039E000C5E900431D606C626560FEF7C1FF686A4F
:1039F000002383F3118838BD206803685C6023606E
:103A0000FDF77EFB0022A3684262013BDAE700BFBC
:103A100070140020101200200000000000000000C0
:103A200038B501241D4B1E4D9A691E48916800232C
:103A300021441D4A2C60FEF7F3FE02231B4A1C4C56
:103A400010602B60FFF7B4FF20681A49001BB0FA22
:103A500080F04009FCF7ACFF00B138BDA068164902
:103A6000B0FA80F04009FCF7A3FF0028F5D103234A
:103A70002B60FFF79DFF20680E49001BB0FA80F015
:103A80004009FCF795FF0028E7D1A0680A49B0FA81
:103A900080F0BDE838404009FCF78ABF10120020D2
:103AA000A41B002090140020D1350008BC1B00206E
:103AB00070140020C4AF0008D4AF0008000000005C
:103AC00038B5202383F3118801220025094C23688F
:103AD00004F118002275C4E902332561FDF728FBC3
:103AE00004F12000FDF724FBFFF752FF85F3118856
:103AF00038BD00BF580C002000000000000000008E
:103B0000FFF7DEBF00000000000000000000000022
:103B1000FFF7F6BF000000000000000000000000FA
:103B2000FFF7EEBF000000000000000000000000F2
:103B3000F8B506460F46202383F31188154C04F18F
:103B400018050BE02369D4E90012501AB3EBA00F5B
:103B50000DD139462846FFF7D3FE20B9237D002B2F
:103B6000F0D06FF00100002383F31188F8BDA56841
:103B70000133281DA06082422E60074898BFA160D3
:103B80002361FDF7EDFAFFF703FF0020002383F325
:103B90001188F8BD580C0020780C002000000000AF
:103BA000F8B5144C07460E4604F118050BE02369DE
:103BB000D4E90021881AB3EBA00F0AD13146284678
:103BC000FFF79EFE20B9237D002BF0D06FF001009F
:103BD000F8BDE06801330438824288BF081FE06006
:103BE000076005482361FDF7BBFAFFF7D1FE00200F
:103BF000F8BD00BF580C0020780C00200000000029
:103C0000F8B507460E46202383F31188154CE518B6
:103C100006E023696BB931462846FFF771FE20B9EB
:103C2000237D002BF5D06FF00100002383F3118872
:103C3000F8BDE16860680A1D82420968E26028BF39
:103C40002268396003F1FF33074828BFE26023612F
:103C5000FDF786FAFFF79CFE0020002383F311880E
:103C6000F8BD00BF580C0020700C002000000000C0
:103C7000012370B54224424E424D82B033604FF072
:103C8000FF312046FFF754FFB0FA80F02946400983
:103C9000FCF78EFE013488B9462CF0D102230121B5
:103CA00058203360FFF744FFA0F1FF30B0FA80F0F6
:103CB00034494009FCF77CFE044608B102B070BDEF
:103CC000202585F311885820FDF75AFA84F31188CE
:103CD000A0F1FF30B0FA80F02A494009FCF768FEF5
:103CE00004460028EAD185F3118801215820FFF706
:103CF00057FF84F31188A0F1FF30B0FA80F021491A
:103D00004009FCF755FE04460028D7D185F31188F9
:103D10005820FDF75DFA84F31188A0F1FF30B0FA66
:103D200080F018494009FCF743FE04460028C5D13D
:103D300003233360FFF7C4FE0422134B0DEB020094
:103D40001C7501213260FFF75BFFA0F1FF30B0FA74
:103D500080F00C494009FCF72BFE04460028ADD149
:103D600085F3118801A8FDF75BFA84F31188A0F1AF
:103D7000FF30B0FA80F003494009FCF719FE9DE7D7
:103D8000A41B002034A00008580C002000000000F4
:103D90002DE9F0474FF00108AD4F82B02026C7F85B
:103DA000008086F31188AB4CAB492069D4E900232D
:103DB0009B1AC0EBA300A0F10400B0FA80F0400908
:103DC000FCF7F6FD28B1002383F3118802B0BDE8AB
:103DD000F087054680F3118802233B6086F3118843
:103DE000236804F11800C4E90233256184F81480C3
:103DF000FDF79EF904F12000FDF79AF985F311888B
:103E000086F31188D4E9002320699B1AC0EBA30034
:103E1000A0F10400B0FA80F090494009FCF7C8FD19
:103E2000804688B980F3118886F3118820698C490F
:103E3000B0FA80F04009FCF7BBFD054648B188F3B5
:103E4000118802B0BDE8F08785F3118802B0BDE8A3
:103E5000F08780F3118886F311882068A368814970
:103E6000C01AB0FA80F04009FCF7A2FD8046002895
:103E7000EAD180F3118886F311882068E3687A49D3
:103E8000C01AB0FA80F04009FCF792FD0028D6D1A4
:103E900080F31188032381464225DFF8D0A12075E5
:103EA0003B6086F311882846FDF76AF989F311888B
:103EB000B0FA80F051464009FCF77AFD01358046A2
:103EC000002883D1452DECD186F311884120FDF7E0
:103ED0007FF988F31188B0FA80F064494009FCF753
:103EE00067FD054600287FF471AF4FF00408C7F85E
:103EF000008086F311882269D4E900135B1AB2EBC3
:103F0000A30F0CBF012000205949FCF751FD814649
:103F1000002899D180F3118886F3118820695549CA
:103F2000A0F10400B0FA80F04009FCF741FD05461D
:103F300010B189F3118849E780F3118886F311885D
:103F4000D4E90230C01AB0FA80F04B494009FCF7BE
:103F50002FFD00287FF478AF80F3118805230546F4
:103F60002026DFF808913B6086F3118801A8FDF751
:103F700057F985F31188B0FA80F049464009FCF7FB
:103F800017FD00287FF422AF9DF80400FCF7B0FD78
:103F9000B8F10108E8D139493948FCF721FE002879
:103FA0007FF414AF06234FF0FF3146203B60FFF74C
:103FB000BFFDB0FA80F02D494009FCF7F9FC00285C
:103FC0007FF404AF4FF0FF3101A8FFF719FEB0FAFC
:103FD00080F026494009FCF7EBFC00287FF4F6AEA0
:103FE00007233B6086F311882369D4E90012521A33
:103FF000C3EBA203191F484248411849FCF7D8FCFB
:1040000000287FF41CAF88F3118886F3118820699B
:104010001349B0FA80F04009FCF7CAFC00287FF48D
:104020000EAF88F311882068A3680E49C21A504267
:104030005041FCF7BDFC00287FF4C8AE2068E3685F
:104040000949C31A58425841FCF7B2FCBEE600BF0A
:10405000A41B0020580C00206C9F0008789F0008CB
:10406000849F0008909F0008B49F000834A00008B7
:10407000D89F0008E49F0008F09F000808A00008EF
:104080001CA000080000000000000000000000006C
:1040900001232DE9F041B84F82B020253B6085F324
:1040A0001188B64CB6492069D4E900239B1AC0EBAD
:1040B000A300A0F10400B0FA80F04009FCF778FCFE
:1040C00028B1002383F3118802B0BDE8F0810646D1
:1040D00080F3118802233B60FFF7F2FC85F311881F
:1040E000D4E9002320699B1AC0EBA300A0F10400CF
:1040F000B0FA80F0A3494009FCF75AFC804688B921
:1041000080F3118885F3118820699F49B0FA80F007
:104110004009FCF74DFC064648B188F3118802B00F
:10412000BDE8F08186F3118802B0BDE8F08180F32C
:10413000118885F311882068A3689449C01AB0FAE1
:1041400080F04009FCF734FC80460028EAD180F377
:10415000118885F311882068E3688D49C01AB0FA88
:1041600080F04009FCF724FC0028D6D180F31188A8
:1041700003234FF0FF313B60FFF7DAFC861C8549D3
:1041800014BF00200120FCF713FC064600289BD139
:1041900085F311884FF0FF31FFF702FD86F3118898
:1041A000821C14BF002001207A49FCF701FC002882
:1041B0008AD14FF0FF3101A8FFF722FD831C14BF05
:1041C000002001207349FCF7F3FB00287FF47CAF4B
:1041D00004234225DFF8C08120753B604FF0FF319A
:1041E0002846FFF7A5FCB0FA80F041464009FCF7ED
:1041F000DFFB0135064600287FF466AF452DEDD183
:10420000202585F311884FF0FF314120FFF7C8FCCE
:1042100086F31188B0FA80F05F494009FCF7C8FBCB
:10422000064600287FF450AF05233B6085F31188D4
:104230002269D4E900135B1AB2EBA30F0CBF012073
:1042400000205649FCF7B4FB804600287FF46AAF93
:1042500080F3118885F3118820695149061F704247
:104260007041FCF7A5FB064600287FF456AF80F3AB
:10427000118885F31188D4E90230C51A6842684173
:104280004849FCF795FB00287FF44CAF80F3118878
:1042900006230425404E3B604FF0FF3101A8FFF795
:1042A000AFFCB0FA80F031464009FCF781FB0028F2
:1042B0007FF40AAF9DF80400FCF71AFC013DEBD136
:1042C00039493A48FCF78CFC00287FF4FDAE0723FF
:1042D0004FF0FF3146203B60FFF72AFCB0FA80F038
:1042E0002D494009FCF764FB00287FF4EDAE4FF048
:1042F000FF3101A8FFF784FCB0FA80F0264940099D
:10430000FCF756FB00287FF4DFAE082320263B6035
:1043100086F311882369D4E90012521AC3EBA20371
:10432000191F484248411749FCF742FB08BB85F377
:10433000118886F3118820691349B0FA80F040098A
:10434000FCF736FBA8B985F311882068A3680F49EC
:10435000C21A50425041FCF72BFB00287FF4B4AE48
:104360002068E3680A49C31A58425841FCF720FB09
:10437000AAE685F31188A7E6A41B0020580C0020AC
:104380006C9F0008789F0008849F0008909F000899
:10439000B49F0008489F000834A00008D89F000878
:1043A000E49F0008F09F000808A000081CA0000877
:1043B0002DE9F047364C0123A24604264FF0200990
:1043C0004FF00008334F344D3B6089F31188E368A8
:1043D00050462B60E560FCF7BBFFFFF7D9FA88F386
:1043E00011882369013E1D44EFD1022304252B4E81
:1043F0003B600020FEF79CFB003018BF01203146D7
:10440000FCF7D6FA002841D1013DF2D103233B60ED
:10441000FEF78EFBB0FA80F021494009FCF7C8FA9C
:10442000A0BB04234FF0200A1B4EDFF864903B60D2
:1044300006F1100832468AF31188E368484646F8C8
:10444000043BE260FCF784FFFFF7A2FA85F31188D2
:10445000B045EFD105230424104D3B600020FEF74A
:1044600067FB003018BF01202946FCF7A1FA68B9A4
:10447000013CF3D106233B60FEF75AFBBDE8F04751
:10448000B0FA80F006494009FCF792BABDE8F0871F
:10449000140C0020A41B002060140020B0A0000811
:1044A000BCA00008000000000000000000000000A8
:1044B00038B5202585F3118800210B48FCF708FF4B
:1044C0000024FFF765FA84F311886420FEF738FCB6
:1044D00085F3118805482146FCF7FAFEFFF758FAE4
:1044E00084F3118838BD00BF0C0C0020100C002094
:1044F00010B504466420FEF723FC202383F31188C3
:1045000001212046FCF7CCFEFFF742FA002383F39B
:10451000118810BD00000000000000000000000035
:1045200010B54FF49670FEF70BFC202383F311882F
:10453000064C2046FEF754FF2046FCF7E1FEFFF74D
:1045400027FA002383F3118810BD00BF480C002018
:1045500008B56420FEF7F4FB202383F31188044898
:10456000FCF7F6FEFFF714FA002383F3118808BD69
:104570007014002000000000000000000000000097
:1045800008B5202282F311888368002B05DDFFF730
:10459000FFF9002383F3118808BDFCF7D9FEFFF76C
:1045A000F7F9002383F3118808BD00BF0000000065
:1045B00010B52023044683F31188094A13682BB1F0
:1045C0000021184659621160FCF79AFDFFF7E0F9E7
:1045D000002383F311882078BDE81040FCF788BAE7
:1045E000D01B0020000000000000000000000000C0
:1045F000174B70B59D69202383F311880468C36845
:104600008442AB631DD0E96B4BB11A68934203D06F
:104610009268914238BF1146DB68002BF5D1034602
:104620002268A66B2046A9601A605360C3E902465F
:10463000A363FCF765FDFFF7ABF9002383F3118853
:1046400070BD0023A360002383F3118870BD00BFF9
:104650001012002000000000000000000000000018
:104660002DE9F047374D01F10708002818BF05462E
:1046700005F10C0738460E464FEAD808FEF710FF42
:1046800005F1040CDCF8003003F10F0020F0070006
:10469000A0F1080E73B1D3F8049009F1010203EB05
:1046A000C202964504D2111AC9108845044612D98F
:1046B0009C46E7E73846FFF79BFF2C6844B1082289
:1046C0004FEAC8001146A047044608B140E9025627
:1046D0002046BDE8F087734503F108001AD3C845AA
:1046E000D3F800A029D0044608F1010803EBC80163
:1046F00043F838A09E4601F10803D31ADB104B6043
:10470000CCF800103846CEE90056FFF771FF20467E
:10471000BDE8F087AEEB0002D21088455A60F1D2B6
:104720006FEA0802186808F1010811440EEBC8028C
:1047300051604EF838001A60E4E7CCF800A0044657
:104740009E46DFE7B01300200000000000000000DC
:10475000F8B50C680D46A1420646174603D10DE098
:104760002468A5420AD008223146A01805F05CF959
:104770000028F5D114B104462046F8BD3946002082
:10478000FFF76EFF04460028F6D008223146104499
:1047900005F09AF901222B682046C4E900322C600A
:1047A000F8BD00BF00000000000000000000000095
:1047B00070B586B016461D460C46FFF751FFD8B1BE
:1047C0000A9B044404930B9B02940593CDE900607B
:1047D0000395202383F311886846FCF719FC012315
:1047E000002180F821300446FDF7EAFF002383F31F
:1047F0001188204606B070BD0446204606B070BD44
:104800002DE9F04F344D83B02B7D1BB1002003B058
:10481000BDE8F08F834605F1300001935F46FEF757
:104820003FFEDFF8BC8005F120091FE0324641461B
:10483000FBF71AFD08EB060152462868FBF714FD4A
:104840002B6848465344AB60FFF7D2FE3F1BA044A1
:10485000202383F31188E86920B1019B0021EB61DB
:10486000FDF7AEFF019B83F311882FB34846FEF797
:1048700017FED5E900462B69341BE41ABC4228BF59
:104880003C46A8682344361AA6422B611BD8A4EBE9
:10489000060ACBD322464146FBF7E6FC2B68AB6009
:1048A0004846FFF7A5FE002CD0D1202383F31188C2
:1048B00084F31188ABEB070B0848FFF799FE5846C5
:1048C00003B0BDE8F08F22464146FBF7CDFCAB6854
:1048D0002344AB60E4E700BF980C0020C80C002024
:1048E00038A30008000000000000000000000000E5
:1048F0002DE9F04F324C83B0237D1BB1002003B073
:10490000BDE8F08F8B46804604F1400001935F467E
:10491000FEF7C6FD04F120091FE032464046FBF7D2
:10492000A3FC08EB060052462168FBF79DFC2368B8
:1049300048465344E360FFF75BFE7F1BA8442023F7
:1049400083F31188A06920B1019B0021A361FDF7C9
:1049500037FF019B83F311881FB34846FEF7A0FD84
:10496000D4E90313BB421D4628BF3D4666685B1B66
:10497000761AAE4223611BD8A5EB060ACDD32A4690
:104980004046FBF771FC2368E3604846FFF730FEC2
:10499000002DD2D1202383F3118885F31188ABEB4E
:1049A000070B0848FFF724FE584603B0BDE8F08F18
:1049B0002A464046FBF758FCE3682B44E360E4E7F3
:1049C000980C0020D80C002000000000000000001F
:1049D000012330B5214D85B0102168462B60FFF7CB
:1049E00087FFB0FA80F01E494009FBF7E1FF40B9AC
:1049F0001C4C2268E36893421DD01B49FBF7D8FF8B
:104A000008B105B030BD022310202B60FFF7F8FE7F
:104A1000A0F10800B0FA80F011494009FBF7C8FF87
:104A20000028EED1D4E9022393420CD00E49FBF7C3
:104A3000BFFF05B030BDA2689342DED12069B0FA55
:104A400080F04009D9E722689342EFD12069A0F1B4
:104A50000800B0FA80F04009E8E700BFA41B00207E
:104A60006C9F0008980C00208CA00008000000003B
:104A700038B505460748FEF713FD074A0748111FDA
:104A8000FDF72EFE044600B105610248FFF7B0FDB8
:104A9000204638BD8412002098120020FC9B00089C
:104AA00038B5074C2046FEF7FBFC04F11001054821
:104AB000FDF7F6FD05462046FFF79AFD284638BD6E
:104AC00084120020FC9B0008000000000000000091
:104AD00010B50A48FEF7E4FC802209490948FFF7AF
:104AE00037FE044620B180220021103004F0E8FE99
:104AF0000248FFF77DFD204610BD00BF8412002054
:104B0000A8120020D49B0008000000000000000054
:104B100038B5074C2046FEF7C3FC04F124010548D4
:104B2000FDF7BEFD05462046FFF762FD284638BD6D
:104B300084120020D49B0008000000000000000048
:104B400010B50A48FEF7ACFC094A0A48111FFDF7E8
:104B5000C7FD044628B1002200F11003C0E9043368
:104B600082610248FFF744FD204610BD84120020F8
:104B7000B0120020F49B00080000000000000000BC
:104B800038B5074C2046FEF78BFC04F12801054898
:104B9000FDF786FD05462046FFF72AFD284638BD6D
:104BA00084120020F49B00080000000000000000B8
:104BB00038B51148FEF774FC782210491048FFF709
:104BC000C7FD044698B1002004F1380304F1280120
:104BD00004F13002C4E90633C4E90A11C4E90C2225
:104BE00004F17805206284F824002361656102489D
:104BF000FFF7FEFC204638BD84120020C0120020C2
:104C0000DC9B000800000000000000000000000025
:104C100038B5074C2046FEF743FC04F13C0105483B
:104C2000FDF73EFD05462046FFF7E2FC284638BD6D
:104C300084120020DC9B000800000000000000003F
:104C40002DE9F84F2248FEF72BFC4FF4CA72214998
:104C50002148FFF77DFD0446A0B300231022042164
:104C600000F19407994615463E464FF0200800EBA8
:104C7000020AC0E90821C0E904AAC3618362836112
:104C800000F1540B88F31188E36950463360E66104
:104C9000FCF75EFBFEF77CFE89F31188236A013D79
:104CA0001E44EFD104F1440204F14C03C4E90DBBEE
:104CB000C4E91122C4E91333C4F82CB02763E563B7
:104CC00084F840500248FFF793FC2046BDE8F88F77
:104CD00084120020C4120020E49B000800000000A1
:104CE00038B5074C2046FEF7DBFB04F140010548D0
:104CF000FDF7D6FC05462046FFF77AFC284638BD6E
:104D000084120020E49B0008000000000000000066
:104D100038B51548FEF7C4FB702214491448FFF754
:104D200017FD0446D8B1002300F1600200F17005C0
:104D300004F140013030236284F82430C4E90A339E
:104D4000A363A364A36504F15003C4E90622C4E984
:104D50000C00C4E91011C4E91433226165610248F2
:104D6000FFF746FC204638BD84120020C812002000
:104D7000EC9B0008000000000000000000000000A4
:104D800038B5074C2046FEF78BFB04F1440105487B
:104D9000FDF786FC05462046FFF72AFC284638BD6D
:104DA00084120020EC9B00080000000000000000BE
:104DB00070B501251E4C1F4E84B004F120003560F3
:104DC000FEF76EFB002223682575C4E902332261D9
:104DD000202383F31188A06928B16FF00103436297
:104DE000A261FCF78DF9E06930B16FF00102002398
:104DF0004262E361FCF784F9FEF7CAFD002585F302
:104E000011880D48FFF7F4FB2268E368934206D04F
:104E100028460A49FBF7CCFD90B104B070BDA268EA
:104E20009342F5D12569B5FA85F04009F1E700BF55
:104E3000980C0020A41B0020B80C00208CA00008B7
:104E4000022310203360FFF7DBFCB0FA80F0C24988
:104E50004009FBF7ADFD0028DFD12268E3689342EB
:104E600000F08D81BD49FBF7A3FD0028D5D10323B8
:104E7000102168463360FFF73BFDB0FA80F0B64979
:104E80004009FBF795FD0028C7D12268E3689342EB
:104E900000F08781B149FBF78BFD0028BDD10421CB
:104EA0002268E36820759342316000F07181AB495C
:104EB000FBF77EFD0028B0D1052310203360FFF7FB
:104EC0009FFCA0F11000B0FA80F0A5494009FBF763
:104ED0006FFD0028A1D12268E368934200F06A8147
:104EE0009E49FBF765FD002897D1062310216846EF
:104EF0003360FFF7FDFCA0F11000B0FA80F0984994
:104F00004009FBF755FD002887D12268E3689342EA
:104F100000F05B819149FBF74BFD00287FF47DAFEA
:104F2000904B009A9A4200F05981012080F00100D4
:104F30008D49FBF73DFD00287FF46FAF0723042068
:104F40003360FFF75DFCA0F10400B0FA80F0844903
:104F50004009FBF72DFD00287FF45FAFD4E9022361
:104F6000934203D02268934200F053817B49FBF7C0
:104F70001FFD00287FF451AF08230C203360FFF79A
:104F80003FFCA0F10C02504250417549FBF710FD67
:104F900000287FF442AF2268E368934200F03E812C
:104FA0006E49FBF705FD00287FF437AF0923042184
:104FB00068463360FFF79CFCA0F1040EDEF10000B0
:104FC00040EB0E006649FBF7F3FC00287FF425AFA9
:104FD0002368E2689A4203D0A268934200F04281BB
:104FE0005E49FBF7E5FC00287FF417AF00985D4BA6
:104FF0005D49C51A68426841FBF7DAFC00287FF476
:105000000CAF0A230C2168463360FFF771FCA0F156
:105010000C02504250415249FBF7CAFC00287FF471
:10502000FCAE2268E368934200F002814B49FBF733
:10503000BFFC00287FF4F1AE69460C224B4804F017
:105040000DFCB0FA80F048494009FBF7B1FC00289C
:105050007FF4E3AE0B2305203360FFF7D1FB431F42
:10506000584258413E49FBF7A3FC00287FF4D5AED7
:10507000D4E90223934203D02268934200F0E180F6
:105080003649FBF795FC00287FF4C7AE0C230521B9
:1050900068463360FFF72CFCA0F1050CDCF1000042
:1050A00040EB0C002E49FBF783FC00287FF4B5AEE3
:1050B000D4E90223934200F0E7802849FBF778FC0B
:1050C00000287FF4AAAE69460522284804F0C6FBF2
:1050D000B0FA80F024494009FBF76AFC00287FF40D
:1050E0009CAE0D2310203360FFF78AFBA0F1100562
:1050F000684268411A49FBF75BFC00287FF48DAEDB
:10510000D4E90223934200F0B5801449FBF750FC28
:1051100000287FF482AE0E23102168463360FFF72B
:10512000E7FBA0F11003584258410D49FBF740FC42
:1051300000287FF472AED4E90223934200F0898004
:105140000649FBF735FC00287FF467AE694610225C
:10515000064804F083FB0BE05CA000088CA000086C
:105160006C9F00083031323368A0000838A3000873
:10517000B0FA80F049494009FBF71AFC4DE6A268F5
:1051800093427FF46FAE2069B0FA80F0400969E67F
:10519000A26893427FF48BAE2069B0FA80F0400998
:1051A00085E6A26893427FF475AE2069B0FA80F07C
:1051B00040096FE6A26893427FF492AE2069A0F1A5
:1051C0001000B0FA80F040098AE6A26893427FF4AA
:1051D000A1AE2069B0FA80F040099BE6019A03F184
:1051E00004339A427FF4A1AE03F1306303F5302318
:1051F000029A03F204439A427FF497AE03F180636C
:1052000003F58123039A03F20B339A427FF48DAEA8
:105210008CE62069011F48424841A7E6A2689342F4
:105220007FF4BEAE2069A0F1100358425841B7E6A2
:10523000A26893427FF4FAAE2069B0FA80F0400988
:10524000F4E62069A0F1050EDEF1000040EB0E004F
:1052500016E7226893423FF473AF2069B0FA80F0FA
:1052600040096DE72069A0F10C0CDCF1000040EB77
:105270000C00B5E6226893423FF447AF2069A0F1E5
:1052800010025042504140E7226893423FF415AF6C
:105290002069B0FA80F040090FE700BF68A000085D
:1052A00001232DE9F041DFF87C800025C8F80030AB
:1052B000FDF7D6FD4FF0804700F5FA60164C86B238
:1052C0002046FEF7EDF82046FFF792F92046FEF75C
:1052D000E7F82046FFF78CF92046FEF7E1F8204674
:1052E000FFF786F92046FEF7DBF82046FFF780F946
:1052F0007B6A01359BB29E42E2D802230748C8F878
:105300000030FBF755FCA800FBF7E2FBBDE8F041DD
:105310000348FBF72DBC00BF50140020D0B3000899
:105320001CB40008A41B00200000000000000000C6
:10533000F8B506461C48FEF7B3F81C48FEF7B0F86F
:10534000202383F311881A4CA3699D6B2846FBF731
:10535000D7FF1849A26908460B46516203E09F68CF
:1053600091688F4202D31B688342F8D159680720A5
:10537000C2E900310A605A60FDF7FAFAA3695B6A74
:10538000013302D02846FEF72BF8002383F311885F
:105390003078FBF7ADFB0548FFF72AF9BDE8F84088
:1053A0000148FFF725B900BF480C0020380C002049
:1053B00010120020040C002000000000000000007B
:1053C00070B506461648FEF76BF8202383F3118864
:1053D000144B9C69A56B2846FBF792FF124A1146B5
:1053E0001346626203E09868A268904202D31B6889
:1053F0008B42F8D15A680720C4E9003214605C601F
:10540000FDF7B6FA2846FDF7EBFF002383F311887A
:105410003078FBF76DFBBDE870400148FFF7E8B856
:10542000380C002010120020040C002000000000A6
:1054300038B50546054C2046FEF732F82878FBF7CC
:1054400057FB2046BDE83840FFF7D2B8480C002093
:1054500002222DE9F8434E4D4E4CAB6922609E6806
:10546000FBF756F84C49FBF7A3FA08B1BDE8F883FF
:1054700003232360FBF74CF880F00100C0B24749DA
:10548000FBF796FA0028F1D10423454F23603846F4
:10549000FFF7AEF8B8684349B0FA80F04009FBF76F
:1054A00087FA0028E2D138683F49C01BB0FA80F083
:1054B0004009FBF77DFA0028D8D1AB69052298682E
:1054C0003A49801BB0FA80F040092260FBF770FA7D
:1054D0000028CBD106232360FBF71AF82E49FBF7EF
:1054E00067FA0028C2D1FBF713F880F00100C0B2C0
:1054F0002A49FBF75DFA0028B8D1D5F81890202387
:1055000083F31188D9F83830D3B180461A68D96846
:105510009342C9F8381037D0906B116819604B600E
:10552000C3E9022093631046FBF7EAFDD9F838304F
:10553000002BEBD1D9F83C30C9F80830FEF728FA37
:10554000002383F31188B8681649B0FA80F0400947
:10555000FBF72EFA002889D138681349C01BB0FA2E
:1055600080F04009FBF724FA00287FF47FAFAA6996
:10557000072390682360801BB0FA80F0BDE8F843F1
:105580000A494009FBF714BAC3F808800B46CFE775
:1055900010120020A41B002070B0000880B000088A
:1055A000380C00208CB00008C4AF000898B0000888
:1055B0002DE9F84302273E4D3E4EAA693E4B9468C2
:1055C0003E4804F101083E4A41463760FDF728F99C
:1055D0003C4F04F10209494638603B4B3B4A3C488A
:1055E000FDF71EF9032378603A483360FDF758FF52
:1055F000AB6939499868001BB0FA80F04009FBF7A5
:10560000D7F908B1BDE8F8830423C8203360FDF75B
:1056100097FBAB6930499868A0EB0800B0FA80F0BE
:105620004009FBF7C5F90028ECD105232B4833606E
:10563000FDF736FFAB6928499868A0EB0800B0FA7F
:1056400080F04009FBF7B4F90028DBD10623C8201D
:105650003360FDF775FBAB691F499868A0EB090043
:10566000B0FA80F04009FBF7A3F90028CAD107235C
:105670001A483360FEF7BCFFAB6917499868A0EB86
:105680000800B0FA80F04009FBF792F90028B9D180
:10569000082310483360FEF7ABFFAB690E499868EA
:1056A000001BB0FA80F0BDE8F8434009FBF780B971
:1056B00010120020A41B002058B0000890140020F5
:1056C000E1560008BC1B00205CB000082145000822
:1056D000D8150020380C002098B00008480C002095
:1056E00010B5064C6420FDF72BFB2046FDF7D8FED5
:1056F0002046BDE81040FEF77BBF00BF380C0020FD
:1057000038B50546054C2046FDF7CAFE2878FBF75C
:10571000EFF92046BDE83840FEF76ABF380C00209C
:1057200038B50446144D2846FDF7BAFE6368013BC0
:105730006360A3B905F128010A4600E01A46136820
:105740008B4211D09C42F9D121682023116083F350
:105750001188EA6A00232260EC6283F3118806480C
:10576000BDE83840FEF744BF202383F311880023AF
:10577000EA6A1A60FFDE00BF841200200000000009
:10578000F8B50125424C2560FFF7FAF9B0FA80F030
:1057900040494009FBF70CF900B1F8BD0223236032
:1057A000FFF7CEF90646003018BF01203A49FBF753
:1057B000FFF80028F1D103232360FFF7C1F9B0FA05
:1057C00080F036494009FBF7F3F80028E5D10423BF
:1057D0002360FFF7D5F90746003018BF0120304994
:1057E000FBF7E6F80028D8D1F01BB0FA80F02D497D
:1057F0004009FBF7DDF80028CFD178682949A0F1EE
:105800000200B0FA80F04009FBF7D2F80028C4D1BA
:105810007B6828462B447B602249FBF7C9F80028A7
:10582000BBD178681F49A0F10300B0FA80F04009AD
:10583000FBF7BEF80028B0D13846FFF771FF786853
:105840001949A0F10200B0FA80F04009FBF7B0F866
:105850000028A2D13846FFF763FF70681249401B49
:10586000B0FA80F04009FBF7A3F8002895D1052392
:1058700030462360FFF754FF06232360FFF780F9CB
:10588000BDE8F840B0FA80F002494009FBF790B853
:10589000A41B002030A2000810A2000820A20008CB
:1058A0002CA2000838A2000854A200080000000042
:1058B00010B5FFF765F940B1436804462BB12046A7
:1058C000FFF72EFF6368002BF9D110BD0000000028
:1058D00038B50446144D2846FDF7E2FD6368013BE8
:1058E0006360A3B905F110010A4600E01A46136887
:1058F0008B4211D09C42F9D121682023116083F39F
:1059000011886A69002322606C6183F3118806485C
:10591000BDE83840FEF76CBE202383F311880023D6
:105920006A691A60FFDE00BF8412002000000000D8
:105930002DE9F0410125504C2560FFF7B1F8B0FA90
:1059400080F04E494009FBF733F808B1BDE8F0811B
:1059500002234B482360FFF78BF80646003018BF40
:1059600001204849FBF724F80028EFD103234648DB
:105970002360FFF77DF8B0FA80F044494009FBF757
:1059800017F80028E2D104232360FFF789F80746BF
:10599000003018BF01203E49FBF70AF80028D5D196
:1059A00045F2AA583B693B491868A0EB0800B0FAD9
:1059B00080F04009FAF7FCFF0028C7D1F01BB0FACD
:1059C00080F035494009FAF7F3FF0028BED1786826
:1059D0003149A0F10200B0FA80F04009FAF7E8FF7F
:1059E0000028B3D17B6828462B447B602A49FAF70C
:1059F000DFFF0028AAD13B6926491868A0EB080000
:105A0000B0FA80F04009FAF7D3FF00289ED17868F9
:105A10002149A0F10300B0FA80F04009FAF7C8FF6D
:105A2000002893D13846FFF753FF78681B49821E40
:105A300050425041FAF7BCFF002887D13846FFF7A3
:105A400047FF70681549431B58425841FAF7B0FFA9
:105A500000287FF47BAF052330462360FFF738FF33
:105A600006232360FFF71CF8BDE8F041B0FA80F090
:105A700002494009FAF79CBFA41B002030A200088D
:105A8000900C0020C0A10008940C0020D0A10008B8
:105A90002CA20008E0A1000838A2000854A20008C7
:105AA00010B5FEF7FDFF40B1436804462BB1204618
:105AB000FFF70EFF6368002BF9D110BD0000000056
:105AC0002DE9F843174C8846002818BF044604F116
:105AD0000C0738469146FDF7E3FC6368F3B10024F8
